:020000040800F2
:10000000502A0020DD010008FF3F00089932000857
:10001000FD3F0008790F0008694600080000000055
:100020000000000000000000000000004D4000083B
:1000300089100008000000004B4000084F400008F5
:10004000F7010008F7010008F7010008F7010008B0
:10005000F7010008F7010008F7010008F7010008A0
:10006000F7010008F7010008F7010008F701000890
:10007000F7010008F7010008F7010008F701000880
:10008000F7010008F7010008F7010008F701000870
:10009000F7010008F7010008F7010008F701000860
:1000A000F7010008F7010008F7010008F701000850
:1000B000F7010008F7010008F7010008F701000840
:1000C000F7010008F7010008F7010008F701000830
:1000D000F7010008F7010008F7010008F701000820
:1000E000F7010008F7010008F7010008F701000810
:1000F000F7010008F7010008F7010008F701000800
:10010000F7010008F7010008F7010008F7010008EF
:10011000F7010008F7010008F70100083541000861
:10012000F7010008F7010008F7010008F7010008CF
:10013000F7010008F7010008F7010008F7010008BF
:10014000F7010008F7010008F7010008F7010008AF
:10015000F7010008F7010008F7010008F70100089F
:10016000F7010008F7010008F7010008F70100088F
:10017000F7010008F7010008F7010008000000007F
:10018000F7010008F7010008F7010008F70100086F
:10019000F7010008F7010008F7010008F70100085F
:1001A000F7010008F7010008F7010008F70100084F
:1001B000F7010008F7010008F7010008F70100083F
:1001C000F7010008F7010008DFF80CD000F064F92F
:1001D00000480047A14A0008502A002006488047EE
:1001E00006480047FEE7FEE7FEE7FEE7FEE7FEE71C
:1001F000FEE7FEE7FEE7FEE719410008C901000837
:100200002DE9F05F0546002092469B46884606464B
:10021000814640241BE0284641464746224600F0DE
:10022000A3F853465A46C01A914110D311461846B6
:10023000224600F08AF82D1A67EB01084F46224645
:100240000120002100F081F817EB00094E41201E2B
:10025000A4F10104DFDC484631462A464346BDE8A6
:10026000F09F00000649074A0868504343F23902EC
:10027000104408604008704701490860704700005A
:10028000A00000206D4EC64140EA01039B0703D049
:1002900009E008C9121F08C0042AFAD203E011F8C5
:1002A000013B00F8013B521EF9D27047D2B201E087
:1002B00000F8012B491EFBD270470022F6E710B56B
:1002C00013460A4604461946FFF7F0FF204610BDC4
:1002D00010B54843044604F0E1FC002805D0002195
:1002E000002C02D0641E0155FAE710BD00F0004258
:1002F00030F000400AD0C10D01F56071C0F3160066
:1003000042EA0151C20840071143704700200146EC
:10031000704701F0004330B421F0004150EA01027F
:1003200006D00A0DA2F56072C1F31301002A02DCA7
:1003300030BC00207047440F44EAC104C100E018FB
:1003400030BC00EBC25000F01FB8202A04DB203A7A
:1003500000FA02F1002070479140C2F1200320FA18
:1003600003F3194390407047202A04DB203A21FA16
:1003700002F00021704721FA02F3D040C2F12002BE
:1003800091400843194670470029A8BF7047401C98
:10039000490008BF20F00100704710B4B0FA80FC9B
:1003A00000FA0CF050EA010404BF10BC704749B1D8
:1003B000CCF1200421FA04F411FA0CF118BF012148
:1003C00021430843A3EB0C01CB1D4FEA00614FEA28
:1003D000102042BF002010BC704700EBC3501044F7
:1003E0000029A4BF10BC7047401C490008BF20F082
:1003F000010010BC70472DE9F04D00231A461B1A6E
:100400008A4103DB00200146BDE8F08DC1F30A52AA
:10041000C1F3130141F480154FF0000BD10702D155
:1004200000186D41521E0027044640F2FF11384665
:1004300001EB620A3E468046024600204FF48011DE
:10044000FFF792FFC2197141BB1846EB0100B4EBF4
:10045000030C75EB000C04D3E41A65EB000517469A
:100460000E46241908F101006D4180463428E3DD71
:10047000F91946EB0600091BA84103D24FF0FF32E1
:10048000134601E0002213461BEB070046EB0A511E
:10049000BDE8F04D00F012B8064C074D06E0E068EC
:1004A00040F0010394E8070098471034AC42F6D3BB
:1004B000FFF78EFE647900088479000810B5141ED9
:1004C00073F1000408DA401C41F1000192185B410D
:1004D0001A4301D120F0010010BD2DE9F04D9246E4
:1004E0009B4611B1B1FA81F202E0B0FA80F22032FB
:1004F0009046FFF72AFF04460F4640EA0A0041EA09
:100500000B0153465A46084313D0114653EA0100E3
:1005100019D0C8F140025046FFF726FF05460E46A7
:10052000504659464246FFF710FF084305D00120C8
:1005300004E020463946BDE8F08D0020054346EA38
:10054000E0762C4337430A986305E40AA0EB0800E1
:100550000022FD0A44EA47540A3002D50020014631
:10056000E9E7010510196941DDE90845001969410C
:10057000BDE8F04DA2E700001CB5044600F002F90A
:10058000034600F0EFF802460020CDE900040648DB
:10059000064C006800EB800101EBC00104EB810117
:1005A000C96D03F0B3F81CBD18000020AC03002097
:1005B0000648C02330B40824052204606103436167
:1005C000C261C16230BC01F093BE0000280300206C
:1005D00030B40A4C0A4B246804EB440403EB840354
:1005E0009B689C881D68E41DDB88E408203A14FBA6
:1005F00002F203FB025230BC00F048BD180000209C
:1006000094040020094810B50068816941F0010197
:10061000816101220648110301F046FA01220548D2
:10062000BDE81040082101F03FBA0000AC030020F3
:1006300000200240002802402DE9F0470027044630
:100640001546894610463A4600E0521C10F8011B38
:100650000029FAD100F086F8DFF89CC0012B274E64
:10066000DCF8001001EB410106EB81018968898803
:10067000B0FBF1F002D0022B09D104E0801A48430C
:1006800004EB500002E0801A4843001B84B247F696
:10069000FF71601E884200D30124E04600F062F83A
:1006A0000146D8F8000000EB400006EB80008068AF
:1006B000808807FB101189B2814213D3012012E018
:1006C00049462046FFF784FFD8F800007F1CBFB2E0
:1006D0006D1C00EB400006EB8000806880882044A1
:1006E00084B2DBE700202A780AB1012100E0002172
:1006F0000842E5D1BDE8F0871800002094040020EE
:10070000164B70B506460D461868154C00EB800177
:1007100001EBC00004EB8000806C02280ED000F0DA
:1007200021F8196805FB006001EB810303EBC101AF
:1007300004EB8101C96D41F8202070BD00F012F872
:10074000196805FB006001EB810303EBC10104EBB9
:100750008101C96D21F8102070BD00001800002033
:10076000AC0300200548006800EB800101EBC000ED
:10077000034901EB8000006E704700001800002064
:10078000AC0300200548006800EB800101EBC000CD
:10079000034901EB8000406E704700001800002004
:1007A000AC0300202DE9F041224C2820092140F221
:1007B0001B1604F1140840F21525352240F21D1CC9
:1007C0000B2340F2352788E8EF1000212046FFF781
:1007D000EFFE4FF4F07222664FF4887161660020DC
:1007E00084F8340084F8350084F836006060A06036
:1007F000114AE06022602061204601F098FB18B9A0
:100800000021204600F05CF80A4801F093FB012229
:100810000A48110301F048F909480122082101F0B2
:1008200043F900F06FF9074800F052F90020BDE8E5
:10083000F0810000AC03002000680140002002406D
:10084000002802401C00002030B58DB00A4600236D
:1008500004460093FFF786FFCDE90103FFF792FFFF
:10086000FF21039007208DF8303009924FF4C065C6
:100870008DF83130CDE9043106938DF83230CDE971
:100880000750FFF76FFF0A90FFF77CFF0B9022469F
:100890000948694601F022FB074904EB44004FF088
:1008A000FF34E83101EB800223065460034C94606E
:1008B00041F820300DB030BDAC0300201C000020FA
:1008C0004748F0B5016887B041F080610160006879
:1008D00000F08060059042481438016841F400013E
:1008E0000160016801F400010591016841F0100107
:1008F0000160016801F010010591016841F04001BB
:100900000160016801F040010591016841F48071C6
:100910000160016801F480710591016841F4007182
:100920000160016801F400710591016841F4806182
:100930000160016801F480610591016841F48071F2
:100940000160016801F480710591016841F48061E2
:100950000160006802240E2500F4806005901020DC
:10096000CDE9000402A8002180E832001D48694654
:1009700000F0AEFFE6026946092004901A48CDE96E
:10098000006400F0A5FF194F4FF46640CDE9000464
:1009900069463846049500F09BFF4EF6FF706946A5
:1009A000CDE900041248049500F092FF0495F72069
:1009B000104D6946CDE90004284600F089FF012466
:1009C00069463846CDE9006400F082FF0820694698
:1009D000CDE90004284600F07BFF07B0F0BD000021
:1009E000443802400010024000180240002002403B
:1009F000002402400028024030B5294D04460B4631
:100A0000284A286800EB800101EBC00002EB80005F
:100A1000806CB0B1012823D0022832D0042830D015
:100A200007282ED0FFF79EFE296803FB004001EB4C
:100A3000810303EBC10102EB8101C96D11F81000C4
:100A400030BDFFF78FFE296803FB004001EB8103F7
:100A500003EBC10102EB8101C96D51F8200030BDEB
:100A6000FFF780FE296803FB004001EB810303EBE5
:100A7000C10102EB8101C96D51F8200020F07F40D7
:100A800030BDFFF76FFE296803FB004001EB8103D7
:100A900003EBC10102EB8101C96D31F8100030BDDB
:100AA00018000020AC0300200149086070470000D6
:100AB000180000200449054A096801EB410102EBD6
:100AC0008101486070470000180000209404002055
:100AD0000449054A096801EB410102EB8101886084
:100AE0007047000018000020940400200349044AC5
:100AF000096801EB410142F821007047180000200D
:100B0000940400201B4802222DE9F04100F1340139
:100B1000174E07230660042581E82C00CB600024D3
:100B20000A61D7014A6110238A619102446040261C
:100B3000C0E902454A00C0E90741C0E90924103074
:100B4000002180E8C800103800F05EF80949094823
:100B5000343102F0F7F8084D10B10120287000E0A0
:100B60002C7040F2036000F009F82878BDE8F081AD
:100B7000400100A06C050020240000202DE9F8436E
:100B8000204C102700254FF6FF78012600952146BE
:100B90008146C4E90067C4E90265A1F150004246FC
:100BA00002F004F9012000F027FE02202146C4E9EA
:100BB0000007C4E90265A1F15000424602F0F6F8D0
:100BC00003214246C4E9001708202146C4E9020572
:100BD000A1F1500002F0EAF84FF4087000900421EF
:100BE0004246C4E90260C4E900172146A1F1500061
:100BF00002F0DCF8A4F150004946BDE8F84302F0E9
:100C0000C4B80000BC050020F0B504464F4887B0CA
:100C1000016841F00101016000684C4900F00100E9
:100C200005900839086840F480000860086800F4FE
:100C300080000590086840F004000860086800F033
:100C400004000590086840F008000860086800F09B
:100C500008000590086840F010000860086800F07F
:100C600010000590086840F020000860086800F057
:100C700020000590086840F040000860086800F017
:100C800040000590086840F0800008600868012175
:100C90000C2200F0800005900220CDE9010108231C
:100CA0000093CDE903022A48694600F011FE4CF298
:100CB000037000902748694600F00AFE4FF68370E3
:100CC00000902548694600F003FE4FF63F00009073
:100CD0002248694600F0FCFD48F23310009020489D
:100CE000694600F0F5FD282000901E48694600F096
:100CF000EFFD1D494FF4007500224FF0800CEE000F
:100D00006F004A606801C1E902C5C1E90476183183
:100D1000164EC300032581E80D00C1E903254A6191
:100D20008A6141F8186D21630F488C6300F0C1FCA3
:100D30000D4800F0EFFC00220F21382001F070FA7E
:100D4000382001F05FFA07B0F0BD000038380240EB
:100D500000080240000C0240001002400014024053
:100D600000180240001C0240AC0400201064024045
:100D70002DE9F04F95B0584D4FF0000B06465C46FC
:100D8000CDF844B0CDF848B0CDF84CB0A8680169B2
:100D900068788847002830707ED000240DF1100A52
:100DA0000DF1380908AF8BE0A8680DF12C080AEBAB
:100DB000440208EB44014369687898472878012881
:100DC00007D138F8142029F814203AF8141027F81D
:100DD0001410810705D538F81410C1F5805129F891
:100DE0001410410705D53AF81410C1F5805127F8C1
:100DF0001410000707D538F8140027F814003AF843
:100E0000141029F81410DFF8D48039F8140058F8B9
:100E10002410884201D9421A00E00A1A2F491FFA09
:100E200082FC37F81420143151F824309A4201D949
:100E3000D31A00E09B1A9BB26344052B03D948F8F0
:100E4000240041F8242095F801C0BCF1700F26D091
:100E500058F8242006EB44006B885A43120B42805A
:100E600051F82410AA885143090B818113A8214607
:100E700012AB009011AA604603F018FD30191199C9
:100E80008175129980F82010139979B101290FD03A
:100E9000022910D0032900E01AE010D10DE006EB82
:100EA0004401488037F814008881DFE7012100E021
:100EB0000221C17603E00321FBE780F81BB0641C2C
:100EC0003078A0423FF670AF304600F009F8044693
:100ED00015B02046BDE8F08F28000020CC0500208A
:100EE000F8B5044614480026694600963546407811
:100EF00003F0CCFC0098182816D005DC68B1102847
:100F00000DD0142806D10CE01C280FD040280FD09B
:100F100049280FD001252846F8BDA662FBE701202D
:100F200000E00220A062F6E70320FBE70420F9E7D7
:100F30000520F7E70620F5E72800002070B50C4CE7
:100F400000260C4D60807020A18029688847696860
:100F500070208847512802D00326304670BDA56016
:100F60007020607008212170E9688847F5E700006B
:100F70002800002034000020FEE7F0B5059C44EA7C
:100F8000034503685C6C04F040442C435C640368D4
:100F9000DA634268B2F5403F02D00068C160F0BD3C
:100FA00001F47F42856801F47F04224301F07F430E
:100FB00001F47F0701F47F46CCB2BDB1012D16D0FC
:100FC00001F47F02C1F3C401D20C022D11D0032D14
:100FD00014D0320B390D15011A0F45EA01232109EE
:100FE00043EA02320A4300688263F0BD1A43224397
:100FF000F9E7B30A5B0143EAC222F3E7F40ADB0F25
:10100000640144EA822242EAC332EBE70168182312
:10101000CAB2103AB2FBF3F2054B6FF30901032A8F
:101020009B5CC36500D9091D8165084670470000B7
:101030008A5E000810B583694FF0C074826A014669
:10104000002053B1B3F5005F15D072B1012A0CD066
:10105000022A0AD0032A09D104E01AB1012A06D0D3
:10106000022A03D1C96AC90100D5012010BDC96A8D
:10107000A142FAD010BD002AF7D0012AF2D0022AEC
:10108000F3D0032AF3D010BD704700002DE9F74FCD
:1010900029480026DFF89CA0006800EB40000AEB1E
:1010A000800080688588C788E81D834620F0070097
:1010B000401B00F0FF0939E04FEADB0102980129EB
:1010C00001FB060009D0022909D001784278837813
:1010D000080440EA0220184303E0007801E0008899
:1010E00040BA002480461AE02A1B02EB09010120C5
:1010F000491E884010EA080F009800EB04020E48D1
:10110000016890B201EB410202D05AF8222002E0BD
:101110000AEB82014A680199FFF7F2FA641CAC42BB
:10112000E2D30198401C80B20190761CBE42C3D32A
:10113000BDE8FE8F94040020180000202DE9FF4F29
:1011400083B04FF0000A1C4616468B46554603985E
:10115000006803F015FB0120002131600F2C00EB2B
:101160004402CBF8002002D907B0BDE8F08F002779
:101170000320A0EB4400009011E0012F0FD1DBF819
:101180000000316848430421FFF7A2F80399086082
:1011900050B1DBF800000421FFF79AF80546DDF8AE
:1011A00000900020214666E05BA003F05FFAFEE7B6
:1011B00039B1012F16D03268B2EB410F01D24A008B
:1011C000326038B1012F2ED03268B2EB400F01D21D
:1011D00042003260B9F1000F46DA09EB800202F1F9
:1011E000060947E0621A02920022231A019300EBDB
:1011F000040E14E0029B55F82EC01344C3F11F08DF
:10120000012303FA08F84CEA080C45F82EC0019BAC
:10121000521C55F823C04CEA080C45F823C0B2EB29
:10122000410FE7D3CDE7221A029200220B19019356
:10123000A4EB010E14E0029B55F82EC01344C3F139
:101240001F08012303FA08F84CEA080C45F82EC0E1
:10125000019B521C55F823C04CEA080C45F823C0EA
:10126000B2EB400FE7D3B5E7431A491E09EB8302FF
:1012700002F10A09401C88429AD97F1C022FFFF60E
:101280007CAF00219FED290A3CE0002036E0884237
:101290000ADD00EE902A01EE100AF8EE600AB8EEC0
:1012A000C11AC1EE201A09E09BED001A00EE901A57
:1012B000B8EE411AF8EEE00AC0EE811A55F8214066
:1012C000C0F11F0C1A4F61EE800AFCEEE00A10EE2E
:1012D000902A1206C2F17F43039A24FA0CF414F008
:1012E000010F43EA0703146802D044F82A3002E0F1
:1012F000002244F82A20401C0AF1010A3268824286
:10130000C5D8491CDBF800008842BED8284603F047
:1013100037FA002028E700004D656D6F7279206E66
:101320006F7420656E6F75676821210000000043AF
:1013300000A5FF00F0B5D1E90125D1E90343D1E9CA
:1013400005762A43D1F800C044EA0304D1E9073501
:1013500042EA0402496A42EA0702BCF1010F42EA8A
:10136000060208D004681A432A430A43E30BDB034E
:101370001A4302600BE0066844682B4326F4F845E4
:1013800029430B4303606FF30E04224342600020A5
:10139000F0BD426942EA410141610020704738B521
:1013A00091E81C00C9686FF01F051A4305EB44144F
:1013B00044EA41210A4300920261002038BD000046
:1013C0002DE9F043914691E81C006FF00F05521E85
:1013D0002E0105EB03131A430B7E06EB04268C8AC1
:1013E0002F034FEA054C0D8A32434FF07F4808EB3C
:1013F0000366CB68B9F1010F07EB05450CEB04540C
:101400000CD081683F1107EB03331A432A43224370
:10141000324301F070410A43826011E08168DFF8D5
:1014200028C0C7681B03A3F5805323432A4301EA5E
:101430000C0132430B43836007F070442243C260C7
:101440000020BDE8F0830000FF0F0FFF70B590F89B
:101450003820012A23D0244C012680F8386002234A
:1014600000EB011280F83930158CD36918320A2B41
:1014700043EA054515D0092B13D0137B45EA0363D6
:10148000056899B1E969A1431943E96101681368E5
:101490000B6151680A291BD0092919D01DE00220CF
:1014A00070BDD36803F07F432B43E9E7696AA1432A
:1014B00019436962016813688B6151680A2901D078
:1014C00009290AD1D168026821F07F41916204E0C4
:1014D000D168026821F07F411162002180F83960F3
:1014E00080F83810084670BD0F0003FF70B5040087
:1014F00004D094F83900002510B106E0012070BD39
:10150000204684F8385000F01FF8022084F8390093
:10151000D4E900030121026822F440321A43026038
:101520002068A368426B22F007021A4342632068D6
:10153000E368026C6FF30D021A430264E56384F8FA
:101540003910002070BD000008B5006806498842C7
:1015500008D10648016841F400010160006800F408
:101560000000009008BD000000B00240303802408A
:101570002DE9F8430026044604270D4600964FF057
:10158000030800680068C00726D000F093FA81467F
:101590001EE04068009010F0210F10D000988006E7
:1015A00003D5E06B40F00200E0630098C00703D071
:1015B000E06B40F00100E0632168212035E0681C09
:1015C00006D000F077FAA0EB0900A8424DD8A5B3E9
:1015D000206841688907DCD52068C169406A01F04C
:1015E000200100F02000084335D000F063FA814666
:1015F0002DE04068009010F0290F1FD000980007E0
:1016000003D5E06B40F00400E0630098800603D54A
:10161000E06B40F00200E0630098C00703D0E06B8D
:1016200040F00100E06321682920886084F8397067
:10163000012084F83860BDE8F88316E0681C06D005
:1016400000F038FAA0EB0900A8420ED86DB120686E
:101650004168C906CDD5226812210120916084F825
:101660003900002084F83860E5E7E16B84F83860E1
:1016700041F02001E16384F839800320DBE7F8B50D
:101680000446069894F83850012D10D0012684F8AD
:101690003860022584F8395000902046FFF76DFC31
:1016A0002068016841F0010101600020F8BD0220BE
:1016B000F8BD70B504002BD094F83500022826D070
:1016C000206800252122016821F0010101602068C5
:1016D000056020684560206885602068C5602068D6
:1016E0000561206842612046FFF790FC94F85C2079
:1016F0003F2191408160E56325646564A564E564EC
:101700002565656584F83550002084F8345070BD37
:10171000012070BD2DE9F047044600F0CBF90546E5
:1017200064B14FF0000984F83490022184F8351038
:101730002068016821F0010101600EE00120BDE890
:10174000F08700BF00F0B6F9401B052805D920211D
:101750006165032084F83500F1E720680068C00760
:10176000F0D1D4E90020D4E90251D4E9043C284363
:1017700004F1180519430843116895E8E00140EAAF
:101780000C001C4B2843194040EA060040EA0700C1
:10179000B8F1040F40EA010003D1D4E90B13194357
:1017A0000843106020680126656A4069042D20F016
:1017B000070045EA00050CD1D4E90A01054341B10F
:1017C0002046FFF737FC20B14020606584F8356083
:1017D000B4E7206845612046FFF718FC94F85C30B8
:1017E0003F229A408260C4F8549084F8356000200B
:1017F000A5E700003F8010F070B5044600F05AF9EC
:101800000546601C02D004480078044400F052F9F8
:10181000401BA042FAD370BD08000020F0B587B08D
:1018200014216846FEF749FD2148016800293CD192
:10183000012101601F48016841F001010160006859
:1018400002240025694600F00100059003264FF6AA
:1018500083700C278DE8F100174800F039F848F242
:10186000331069468DE8F100144800F031F84CF26D
:10187000037069468DE8F100114800F029F84FF631
:101880003F0069468DE8F1000E4800F021F828205D
:1018900069468DE8F1000C4800F01AF80820694606
:1018A0008DE8F100094800F013F807B0F0BD000022
:1018B00000000020383802400010024000180240AA
:1018C000000C024000140240001C024000080240CC
:1018D0002DE9F84F00224FF001094FF0030A4FF0B5
:1018E0000F0E00BF0B6809FA02F42340A34270D127
:1018F0004D68012D05D0022D03D0112D01D0122DE0
:1019000011D185685700CE680AFA07FC25EA0C0554
:10191000BE402E43866045680E79A543C6F3001687
:1019200096402E434660C56856008F680AFA06F452
:10193000A543B7402F43C7604D68022D01D0122D3B
:1019400012D1D5080F694FEA427C00EB8505AB4602
:101950002D6A4FEADC6C0EFA0CF807FA0CF725EA50
:1019600008052F43CBF820700D79076805F00305B3
:10197000A743B5403D4305604C68E40074D53D4C39
:10198000256845F480452560246822F00307960702
:1019900004F480440094384C360F2744D7F80848A4
:1019A000DFF8D8C00EFA06F5604524EA050401D137
:1019B00000252EE0324DA84201D1012529E0314D0C
:1019C000A84201D1022524E02F4DA84202D10325CF
:1019D0001FE049E02D4DA84201D1042519E02C4D0E
:1019E000A84201D1052514E02A4DA84201D10625BF
:1019F0000FE0294DA84201D107250AE0274DA84252
:101A000001D1082505E0264DA84201D1092500E0B5
:101A10000A25B540234E2543C7F808584D68346859
:101A2000ED0324EA030400D51C431E4D34602D1D34
:101A30004E682C68B60324EA030400D51C43194EF3
:101A40002C6008364D683468ED0224EA030400D5A2
:101A50001C43144D34600C354E682C68B60224EAE1
:101A6000030400D51C432C60521C102AFFF43AAF2B
:101A7000BDE8F88F443802400030014000000240C9
:101A80000004024000080240000C02400010024026
:101A90000014024000180240001C024000200240D6
:101AA00000240240003C01400AB1816170470904F2
:101AB000FBE7000001488068704700000800002034
:101AC00010B5040014D0242084F841002068016877
:101AD00021F001010160204600F0CAF90020606495
:101AE00084F84100206384F8420084F8400010BD6F
:101AF000012010BD90F841007047000070B504004F
:101B000004D094F84100002510B106E0012070BD1A
:101B1000204684F8405000F0ACF9242084F84100BD
:101B20002068016821F001010160D4E9001020F073
:101B3000706008612068816821F400418160E0687C
:101B400021680128A06806D040F404408860E0685D
:101B5000022803D006E040F40040F7E721684FF484
:101B60000060486020212068114A436813434360A5
:101B70002068C26822F40042C26054F8106B0DCC99
:101B8000104340EA0320F06054F81C3CD4E9000202
:101B90001043186054F81C0D026842F00102026004
:101BA000656484F84110256384F84250002070BDBC
:101BB000008000022DE9FF4F83B0044690F84100F9
:101BC0009A469346DDE91087DDF84890202874D1C5
:101BD0005FEA080014D09FB194F8400001286CD04F
:101BE000012084F84000FFF765FF01220646192313
:101BF0000090D103204601F01FFC002871D103E0C2
:101C00004FF4007060646CE00025C4F82480222149
:101C100084F84110402084F842006564678553468B
:101C200065635A4604992046CDE9009601F08AFB87
:101C300010B184F8405054E0618DFF2734484FF0D4
:101C40008078FF294FF0007A04D927853A46434629
:101C5000009005E0618D53462185009094F828207E
:101C60002046049901F0D2FB00224B460421204675
:101C7000009601F0E1FBA0BB2068616A406A087031
:101C8000606A401C6062208D401E81B22185608D9B
:101C9000401E6085608DD8B1D1B900224B468021AD
:101CA0002046009601F0C8FBD8B9608DFF2805D901
:101CB00027853A464346009506E026E0608D534668
:101CC0002085009594F828202046049901F09EFB79
:101CD000608D0028C8D132464946204601F0D9FB24
:101CE00018B1012007B0BDE8F08F21682020094A13
:101CF000C86121684B6813404B6084F8410084F848
:101D00004250002084F84050ECE70220EAE700004F
:101D10000024008000E800FE2DE9FF4F83B0044658
:101D200090F841009A469346DDE91087DDF8489027
:101D3000202871D15FEA080014D09FB194F84000C8
:101D4000012869D0012084F84000FFF7B3FE01228A
:101D5000064619230090D103204601F06DFB0028B0
:101D60006ED103E04FF40070606469E00025C4F8B0
:101D70002480212184F84110402084F842006564C9
:101D80006785534665635A4604992046CDE9009617
:101D900001F00AFB10B184F8405051E0608DFF273C
:101DA0004FF08078FF284FF0007A04D927853A4613
:101DB0004346009505E0608D53462085009594F8D4
:101DC00028202046049901F021FB3246494620464E
:101DD00001F086FBA0BB606A216800788862606AB7
:101DE000401C6062608D401E6085208D401E80B268
:101DF0002085618DD9B1D0B900224B468021204683
:101E0000009601F019FBD8B9608DFF2805D9278508
:101E10003A464346009506E026E0608D534620850D
:101E2000009594F828202046049901F0EFFA608D7F
:101E30000028CAD132464946204601F02AFB18B193
:101E4000012007B0BDE8F08F20682021074AC1615A
:101E5000206843681340436084F8411084F842507E
:101E6000002084F84050ECE70220EAE700E800FE9A
:101E7000704770470248816802781144816070475A
:101E800008000020032010B500F0EAF9002000F05F
:101E900005F800F09FF9002010BD000070B50D4D51
:101EA00004464FF47A700C4A29781268B0FBF1F0BE
:101EB000B2FBF0F000F092FF48B9102C07D20022DC
:101EC0002146501E00F0ACF900206C6070BD01206E
:101ED00070BD000008000020140000202DE9F04132
:101EE000044690F8A00016460F4601281DD0012593
:101EF00084F8A050022084F8A10006EB860000EBD5
:101F0000C600342204EB80003830FEF7BDF93246BB
:101F10003946204601F03AFC216800204D6284F8E1
:101F2000A15084F8A000BDE8F0810220FBE790F802
:101F3000A10070472DE9F041040004D094F8A100FD
:101F4000002518B107E00120BDE8F081204684F8A3
:101F5000A05000F06BF83448022184F8A11001224F
:101F600002CC8B6923F070438B6194E84A001943DB
:101F7000E3681E4354F8043D31439E69314399613F
:101F800021688B6803408B602168A68AA7698B68EB
:101F90003B4343EA06438B602168CB680340CB6038
:101FA0002168A38B276ACE683E4346EA0346CE608B
:101FB00021680B6903400B612368A68CA76A196925
:101FC000394341EA0641196121684B6903404B617D
:101FD0002068A38D266B4169314341EA0341416189
:101FE000236894F8351094F83600DE6A000406F091
:101FF0007F46DE62236840EA012094F83460D96AA3
:1020000031430143D9622068416B41F006014163CD
:102010002068816941F001018161C4F8A45084F80D
:10202000A120002090E7000000F800F070B586B015
:10203000044614216846FEF740F938492068884272
:102040006AD13748016841F080610160006800F0A2
:102050008060059032481438016841F01001016039
:10206000016801F010010591016841F400710160FF
:10207000016801F400710591016841F4806101601B
:10208000016801F480610591016841F0400101603F
:10209000016801F040010591016841F4807101601F
:1020A000006800240E26694600F480700590102018
:1020B000009002251B48CDE90154CDE90346FFF706
:1020C00007FC4EF6FF700090CDE9015416486946B2
:1020D000CDE90346FFF7FCFBF7200090CDE9015462
:1020E00012486946CDE90346FFF7F2FB0921E802F1
:1020F0000090CDE90154CDE903410D486946FFF751
:10210000E7FB4FF446400090CDE901540948694689
:10211000CDE90346FFF7DCFB06B070BD0068014067
:1021200044380240001002400024024000280240CF
:102130000018024000200240F0B5154C4378211DE4
:102140000A1D23600378F3B143680B60057BC67AF0
:10215000817A437B2D07847B45EA0665C77B90F82F
:1021600009C0067A90F800E045EAC14040EA8340A1
:1021700040EA444040EA074040EA0C2040EA46007A
:1021800040EA0E0001E0002008601060F0BD000091
:1021900098ED00E0BFF35F8F044800210368034A15
:1021A00023F48033036070321160704724ED00E047
:1021B000074A40F00100064970321060086840F498
:1021C00080300860BFF34F8FBFF36F8F7047000000
:1021D00024ED00E00A4808B5016841F08051016033
:1021E000006800F0805000900548001D016841F42F
:1021F00080410160006800F48040009008BD00004C
:1022000040380240002809DB410900F01F02890024
:10221000012001F1E0219040C1F800017047000069
:102220000E4BF0B41B680D46C3F30223C3F107063F
:10223000042E00D90426191D072901D2002300E02D
:10224000DB1E012404FA06F19C40491E2940641E4D
:10225000994014402143F0BC02F010BA0CED00E0AC
:10226000064900F0070210B54FF6FF040868044B5A
:10227000204040EA02201843086010BD0CED00E049
:102280000000FA051848F8B5016841F08051016076
:102290000068164C00F080500090206840F48030B8
:1022A0002060FFF707FC4FF47A76054605E000BF93
:1022B000FFF700FC401BB0420FD86068C003F7D5A1
:1022C000206840F400302060FFF7F4FB054606E08C
:1022D000FFF7F0FB401BB04201D90320F8BD606856
:1022E0008003F5D50020F8BD403802400070004062
:1022F0002DE9F84F04460078DFF824944FF00006EB
:102300003746C0070ED0D9F8001021F40001C9F8F3
:102310000010D9F80010626B1143C9F80010606B0F
:1023200000B90126FE4D2068843500030ED5E16B0F
:10233000286820F4401008432860E06BB0F5801F47
:1023400001D010B102E0012600E0012720684FF41F
:10235000800BC0020CD5216C286820F44000084393
:102360002860206C584501D1012601E000B9012701
:102370002068C10100D50126800666D5E8483830BE
:10238000016841F0805101600068DFF898A300F017
:1023900080500090DAF8001041F48071CAF8001003
:1023A000FFF788FB804605E0FFF784FBA0EB080001
:1023B00064287DD8DAF80000C005F5D5DFF8608321
:1023C00008F16808D8F8000010F440702AD0218E77
:1023D00001F44071814225D0D8F80010D8F80020CF
:1023E00021F4407142F48032C8F80020D8F800206F
:1023F00022F48032C8F80020C8F80010D8F8000095
:10240000C0070FD0FFF756FB824607E0FFF752FBED
:10241000A0EB0A0141F288308142CAD8D8F8000006
:102420008007F3D5206BC0F3012103297ED0D9F8B2
:10243000001021F4F811C9F80010228ED8F800100D
:10244000C2F30B021143C8F800102078C00607D56C
:10245000286820F0807028602868A16B08432860F5
:102460002188AF488830490405D5626E016821F49F
:102470004031114301602188090405D5A26E01682D
:1024800021F44021114301602168C90305D5E26EA2
:10249000016821F44011114301602168890305D5C9
:1024A000226F016821F4400111430160217800E0AE
:1024B00018E1490605D5626C016821F0030111435A
:1024C00001602178090605D5A26C016821F00C0194
:1024D000114301602188C90505D5E26C016821F02E
:1024E0003001114301602188890505D5226D0168FD
:1024F00021F0C001114301602188490505D5626DB5
:10250000016821F44071114301602188090505D556
:10251000A26D016821F44061114301602188C90462
:1025200007D5E26D016821F4405100E041E011431C
:1025300001602188890405D5226E016821F440419B
:10254000114301602168490205D5A26F016821F09D
:1025500080611143016021684FF0006A890209D54A
:10256000E26F016821F0006111430160E16F5145A4
:1025700000D1012721680A0700D50127490305D5A5
:10258000626F016821F04071114301602168090206
:1025900006D5D4F88020016821F0805111430160F4
:1025A000DFF88491012E0ED02068B0F1007F0AD0B0
:1025B0008FE05E4AD9F80030104023F4F81202434D
:1025C000C9F8002039E7D9F800004E4620F08060B5
:1025D000C9F80000FFF76EFA804605E0FFF76AFAD7
:1025E000A0EB080064287DD830680001F6D421787B
:1025F0004B487C30C90712D0616B81B9237A62687D
:102600000168D0F800C09201C1F3014142EA0142E1
:10261000CCF3036142EA016141EA03710160216880
:102620000A0303D5E26BB2F5801F04D0C9021AD5A4
:10263000216C594517D16368016894F80CC0026891
:102640009B01C1F3014143EA0141C2F3027241EA35
:102650000C6141EA027101602968626A21F01F0180
:10266000521E114329602168C90110D5238A62686E
:102670000168D0F800C09201C1F3036142EA03424D
:1026800042EA0162CCF3027142EA01710160216801
:1026900089010CD56168228A237B94F808C08901DE
:1026A00041EA024141EA036141EA0C71016031688B
:1026B000B04641F080613160FFF7FCF9064604E066
:1026C000FFF7F8F9801B64280CD8D8F80000000147
:1026D000F6D56FB3D9F800004E4620F08050C9F807
:1026E000000000E079E0FFF7E5F9074605E000BFEC
:1026F000FFF7E0F9C01B64286FD83068C043800042
:10270000F6D50748216880300A0301D5E26B1AB17B
:10271000C90225D5216C19BB63690168277E08E0D1
:10272000083802400070004000380240FFFCFF0FF4
:102730005AE00268C1F301419B0143EA0143C2F33D
:10274000027143EA076242EA0171016029686FF091
:10275000FF03A26A21F4F85103EB0222114329601E
:102760002168890212D5E16F51450FD1238C62692E
:10277000016807689201C1F3036142EA034242EA39
:102780000162C7F3027142EA017101602178090711
:1027900016D561690268D0F800C08B01277FC2F3AB
:1027A0000362CCF3014143EA014141EA026141EA9B
:1027B000077101602868E16A20F44030084328600E
:1027C000306840F080503060FFF774F9044607E04D
:1027D000FFF770F9001B642802D90320BDE8F88FC9
:1027E0003068C0438000F3D40020F7E72DE9F047BC
:1027F00005000F4663D0444E306800F00F00B84229
:1028000009D2306820F00F0038433060306800F0A3
:102810000F00B84253D128683C4C810712D54007BD
:1028200003D5206840F4E05020602878000703D5E5
:10283000206840F460402060A968206820F0F00023
:10284000084320602878C0072AD0304968680839D2
:10285000012810D00968022810D0890700292EDA33
:10286000216821F0030101432160FFF723F980462D
:1028700041F288390DE009688903EFE78901EDE746
:10288000FFF718F9A0EB0801494502D90320BDE87C
:10289000F0876868216801F00C01B1EB800FEFD17F
:1028A000306800F00F00B8420BD9306820F00F00FC
:1028B00038433060306800F00F00B84201D001208A
:1028C000E5E72878400705D5E968206820F4E0505E
:1028D000084320602878000706D52869216821F47C
:1028E000604141EAC000206000F038F82168084AE1
:1028F000C1F30311515CC8400649086006480068EE
:10290000FFF7CCFA0020C2E7003C02400838024042
:10291000925E0008140000200C00002004490548C5
:1029200009680068044AC1F38221515CC8407047BD
:102930000838024014000020A25E0008044905483F
:1029400009680068044AC1F34231515CC8407047CD
:102950000838024014000020A25E0008154910B596
:102960001548096811F00C0213D01449042A0FD03D
:10297000082A0ED10F4C241F2268236802F03F0260
:102980005B0207D52068C0F38810A0FB010106E0B8
:10299000084610BD2168C1F38811A1FB0001002386
:1029A000FDF72EFC2168C1F30141491C4900B0FB31
:1029B000F1F010BD083802400024F40040787D0199
:1029C0002DE9F84F04004FF000076ED02078DFF8B3
:1029D00068A3AAF10408C007A8F104054CD0DAF8EE
:1029E00000105046C1F38101012908D00068C0F3EE
:1029F000810002280AD1D8F80000400206D52868D4
:102A0000800339D560680028DFD035E06068B0F514
:102A1000803F0BD010B1B0F5A02F11D0286820F462
:102A200080302860286820F4802002E0286840F484
:102A300080302860606890B1FFF73CF806460AE0F5
:102A4000286840F480202860F0E700BFFFF732F8E4
:102A5000801B642872D828688003F7D50CE0FFF744
:102A600029F8064605E000BFFFF724F8801B64281C
:102A7000F0D828688003F7D42078800742D5DAF8A8
:102A80000010504611F00C0F08D00068C0F3810010
:102A900002280BD1D8F80000400207D4286880072C
:102AA00018D5E068012800D114E041E1E068002871
:102AB000286817D040F001002860FEF7FBFF0646AB
:102AC00005E000BFFEF7F6FF801B0228C2D8286889
:102AD0008007F7D52069296821F0F80141EAC00094
:102AE00028600FE020F001002860FEF7E3FF0646B3
:102AF00005E000BFFEF7DEFF801B02281ED8286815
:102B00008007F7D42078000729D58B4861696C309D
:102B100000298146016812D041F001010160FEF7F1
:102B2000C9FF064605E000BFFEF7C4FF801B022870
:102B300004D8D9F800008007F6D510E089E021F02C
:102B400001010160FEF7B6FF064604E0FEF7B2FFA2
:102B5000801B02287DD8D9F800008007F6D42078A1
:102B600040076BD5DFF8D09109F13809D9F800009A
:102B7000C0000BD4D9F8001041F08051C9F8001002
:102B8000D9F80000012700F0805000906B480168E0
:102B9000C90512D40168834641F480710160FEF7D3
:102BA00089FF064605E000BFFEF784FF801B64280E
:102BB0004FD8DBF80000C005F6D55F4EA068683638
:102BC00001280AD008B1052811D0306820F0010092
:102BD0003060306820F0040002E0306840F001000E
:102BE0003060A068A0B1FEF765FF83460CE0306856
:102BF00040F004003060F0E7FEF75CFFA0EB0B0153
:102C000041F28830814266D830688007F4D50EE002
:102C1000FEF750FF834607E0FEF74CFFA0EB0B01E9
:102C200041F28830814256D830688007F4D42FB101
:102C3000D9F8001021F08051C9F80010A069C8B37C
:102C4000DAF80010C1F3810102294BD0022828686C
:102C500000E040E020F08070286003D0FEF72AFFFB
:102C600004463BE0FEF726FF064604E0FEF722FF9F
:102C7000801B02282FD828688001F7D4D4E9096284
:102C8000D4E907012E4B570894F82C20084303EB96
:102C9000074343EA8611084340EA026040F00050CF
:102CA000C8F80000286840F080702860FEF702FF36
:102CB000044606E03EE000BFFEF7FCFE001B0228D3
:102CC00009D828688001F7D534E000BFFEF7F2FE8E
:102CD000001B022802D90320BDE8F88F2868800174
:102CE000F4D427E00128D8F8000021D0E16900F4ED
:102CF00080028A421CD1216A00F03F028A4217D129
:102D0000626A47F6C0710140B1EB821F10D1A16A1F
:102D10004FF0FF3200F4403302EB5101B3EB014FAF
:102D200006D194F82C1000F07060B0EB016F01D068
:102D30000120D1E70020CFE70838024000700040B2
:102D40000000FFFF70B504000D4603D094F82C007E
:102D500010B107E0012070BD002084F82D0020464E
:102D600000F011F8022084F82C002068211DFEF7E5
:102D7000E1FAD4E900022946FEF722FB012084F89B
:102D80002C00002070BDFEF749BD10B5044690F838
:102D90002C00022809D0022084F82C002068FEF7BD
:102DA000F8FA012084F82C00002010BD70B504460C
:102DB00090F82C000D4602280DD0022084F82C003B
:102DC0002068FEF7ECFA2868022805D05FF00100C1
:102DD00084F82C00002070BD0520F9E7401EB0F1FA
:102DE000807F10B501D3012010BD4FF0E024606159
:102DF0000F21601701F042FC0020A0610721216132
:102E000010BD704770477047F0B590F83C20012A1C
:102E10003BD01F4E012480F83C40022280F83D2028
:102E200002681C4D5368B242D2F808C001D0AA42D1
:102E300003D14F6823F470033B430F6823F0700302
:102E40001F4357600268B24213D0B2F1804F10D0D6
:102E5000114B9A420DD0114B9A420AD0104B9A4214
:102E600007D0AA4205D00F4B9A4202D00E4B9A428D
:102E700004D189682CF0800319439160002180F807
:102E80003D4080F83C100846F0BD0220F0BD000037
:102E90000000014000040140000400400008004020
:102EA000000C0040004001400018004010B5040034
:102EB00003D094F83D0010B107E0012010BD0020C0
:102EC00084F83C00204600F00DF8022084F83D0014
:102ED0002068211D01F034F9012084F83D00002014
:102EE00010BD000008B500680B49884212D10B489C
:102EF000016841F02001016000680022114600F0E5
:102F0000200000903720FFF78BF9BDE808403720FC
:102F1000FFF778B908BD00000014004040380240B7
:102F20000168094ACB6843F00103CB6001688868F7
:102F30001040062806D0B0F5803F03D0086840F066
:102F4000010008600020704707000100704770B55D
:102F50000446006800250169C943890715D4C16882
:102F6000C943890711D4EA1E026101212177206833
:102F700080698007204602D0FFF7E8FF04E000F0F8
:102F8000A7F8204600F0A5F8257720680169C94315
:102F9000490717D4C168C943490713D402216FF008
:102FA0000402026121772068806910F4407F204686
:102FB00002D0FFF7CBFF04E000F08AF8204600F0D3
:102FC00088F8257720680169C943090716D4C168C4
:102FD000C943090712D404216FF008020261217766
:102FE0002068C0698007204602D0FFF7AFFF04E0E9
:102FF00000F06EF8204600F06CF825772068016933
:10300000C943C90617D4C168C943C90613D40821E6
:103010006FF01002026121772068C06910F4407FD0
:10302000204602D0FFF792FF04E000F051F820465E
:1030300000F04FF8257720680169C943C90708D116
:10304000C168C943C90704D1891E0161204600F047
:1030500041F820680169C943090609D4C168C94318
:10306000090605D46FF0800101612046FFF7CAFE12
:1030700020680169C943C90509D4C168C943090663
:1030800005D46FF4807101612046FFF7BAFE206815
:103090000169C943490609D4C168C943490605D431
:1030A0006FF040010161204600F01EF820680169C0
:1030B000C94389060BD4C168C943890607D46FF098
:1030C000200101612046BDE87040FFF79CBE70BD45
:1030D0007047704700680349884201D100F090BFF3
:1030E0007047000000140040704710B5040002D083
:1030F000606F10B107E0012010BD002084F870005F
:10310000204600F025F8242060672068016821F03F
:1031100001010160204601F027F90128ECD0606A26
:1031200010B1204601F09EF82068416821F49041DA
:1031300041602068816821F02A018160206801686F
:1031400041F0010101602046BDE8104001F0EEB8F9
:1031500070B586B0044614216846FDF7AEF81C49E8
:103160002068884231D11B48016841F0100101609C
:10317000006800F01000059016481438016841F00E
:1031800002010160016801F002010591016841F04E
:1031900001010160006800240726694600F0010073
:1031A00005908020009002250B48CDE90154CDE91F
:1031B0000346FEF78DFB28020090CDE90154074835
:1031C0006946CDE90346FEF783FB06B070BD0000FB
:1031D0000010014044380240000402400000024058
:1031E0002DE9F8430446406F1F4616460D46202839
:1031F00050D1CDB1C6B194F8700001284AD0012059
:1032000084F8700021224FF00008C4F87C806267C7
:10321000FEF750FC8146A068A4F85060A4F8526004
:10322000B0F5805F03D004E00120BDE8F883206999
:1032300028B12E465FF0000584F8708010E000266B
:10324000FAE78021204601F0BDF9B8B9C6B116F8F9
:10325000010B21688862B4F85200401EA4F85200A5
:10326000B4F852004B464FF0000200970028E8D116
:103270004FF04001204601F0A5F938B10320D4E712
:1032800035F8020B2168C0F30800E3E720206067EF
:103290000020CAE70220C8E7FEE701688A69D24336
:1032A000920701D400228A6200688169C943C90774
:1032B00003D0816941F00101816170472DE9F0413E
:1032C0000446006890460E468069C043C00635D467
:1032D0000025202720688069C043800616D5701C11
:1032E000F8D0FEF7E7FBA0EB0800B04201D8002EB3
:1032F000F0D1606C84F8405040F02000606484F8A5
:10330000417084F842500120BDE8F081216810200E
:10331000C8612068C7612046FFF7BFFF20680849E1
:1033200042680A404260606C40F00400606484F8C7
:10333000417084F8425084F84050E4E70020E3E70D
:1033400000E800FE2DE9F843174604461548DAB2B6
:10335000DDE908981E4600900023204600F056F84C
:1033600042464946204600F0BBF8B8B9012EFDB2EE
:1033700008D02068390A816242464946204600F05A
:10338000AFF858B920688562002240214B4620469C
:10339000CDF8008000F050F8002800D00120BDE8F2
:1033A000F8830000002000802DE9F8430446164809
:1033B00017461E46DAB20090C3022046DDE908989F
:1033C00000F024F842464946204600F089F8B8B992
:1033D000012EFDB208D02068390A81624246494672
:1033E000204600F07DF858B92068856200228021CF
:1033F0004B462046CDF8008000F01EF8002800D093
:103400000120BDE8F88300000020008070B500684E
:10341000C1F30901074E41EA0241049C4FF4806563
:103420004268194305EA54553543AA4321430A43E8
:10343000426070BDFF63FF032DE9F0411D46174652
:103440000E460446DDF8188008E0681C06D0FEF73A
:1034500031FBA0EB0800A8420BD855B12068806969
:1034600036EA000013D00020B842EED00020BDE8BC
:10347000F081626C002084F84000202142F020029C
:10348000626484F8411084F842000120EFE70120D3
:10349000EAE770B516460D4604460DE03246294669
:1034A0002046FFF70BFF08B1012070BDFEF702FBBD
:1034B000801BA84207D835B120688069C0438006C8
:1034C000ECD4002070BD626C002084F84000202104
:1034D00042F02002626484F8411084F84200E3E77D
:1034E00070B516460D4604460FE032462946204682
:1034F000FFF7E4FE08B1012070BD681C05D0FEF79F
:10350000D9FA801BA84207D835B120688069C0432A
:103510008007EAD4002070BD626C002084F840006F
:10352000202142F02002626484F8411084F84200B5
:10353000E1E710B50446FEF7C3FA2046BDE81040A7
:10354000AFF3008010B50446FEF7D4FA002818D176
:103550000C48844201D10C4800E00C4801210C4A7F
:10356000206000206260C4E9020120616061E061C6
:103570002062204600F00EF82046BDE81040FEF71D
:10358000BDBA10BD90020020005C00400054004015
:1035900032279140F0B542490022424B87B0424D5C
:1035A0004FF48076414C9842D1F800C04FF01200A1
:1035B0004FF002034FF0040737D14CF0800CC1F8F4
:1035C00000C009680DF1080C01F08001059180210F
:1035D000CDE900108CE88C00354F69463846FEF77F
:1035E00077F9694638460096FEF772F9286840F484
:1035F00000002860286800F400000590206840F46E
:1036000000002060206820F40000206000220F21CC
:103610004820FEF705FE4820FEF7F4FD00220F21AA
:103620004920FEF7FDFD492035E04CF0020CC1F8C1
:1036300000C00968CDE9022301F00201CDE904715F
:10364000CDE900601B4E69463046FEF741F9701522
:10365000694600903046FEF73BF9286840F40010B8
:103660002860286800F400100590206840F40010DD
:103670002060206820F40010206000220F211F200D
:10368000FEF7CEFD1F20FEF7BDFD00220F212020FA
:10369000FEF7C6FD2020FEF7B5FD07B0F0BD000027
:1036A000303802409002002040380240203802406A
:1036B000001C024000040240FEB50D4606464FF4D1
:1036C0007A74DDE908018DE8130029463046FEF7DB
:1036D00071FA040003D029463046FFF72AFF20463E
:1036E000FEBDFEB50D4606464FF47A74DDE90801CD
:1036F0008DE8130029463046FEF70EFB040003D088
:1037000029463046FFF715FF2046FEBD2DE9F84358
:1037100007461B480E461546DDE908184FF44032AF
:103720001C464260174A126802EB820303EBC20296
:10373000A0F1A80303EB8202926C022A00D00022BF
:103740008260114A0260C1600D48FDF7CFFE00287B
:1037500014D10B483946FDF779FE00280ED10848F0
:103760002B46324641460094FDF789FF002805D1DB
:10377000BDE8F84302480A21FDF7FABEBDE8F88328
:10378000540400201800002000B002402DE9FE4F34
:1037900081460068882493468D888C2204EBCB17E1
:1037A0008A46C3689421BE46C459C3F30B432B44D5
:1037B00004F470441F04019702EBCB1240F80E4052
:1037C00001EBCB13DAF800709C214FF0AC0C01EB4D
:1037D000CB1440F2077102910CEBCB11D9F800C069
:1037E00098250020CDF800C0A02605EBCB15DCF80D
:1037F0000CC006EBCB16CCF30B4C0CF1010C07EB19
:103800000C08DDF800C0019F48EA07084CF80E805C
:10381000D9F80070BAF80CC0B846FF68C7F30A07B9
:1038200067444FEA074E58F8027007F4704C48F8A6
:1038300002C0D9F800C0DAF80870DCF80C80C8F3D0
:103840000A0808F10108B84448EA0E084CF802805A
:10385000D9F80020D75827F00707D750D9F80070BB
:10386000DAF81020FA509AF831209AF818304FEA16
:10387000022C9AF83220120442EA0362D9F800308E
:103880001F5918519AF8303043EA0C031343D9F802
:1038900000201351D9F80020535923F0FF0353514E
:1038A000D9F80020DAF814305351D9F80020935990
:1038B000029CA3439351D9F80030DAE9072422434C
:1038C0009A51D9F8002053585050D9F80020DAF80E
:1038D00024005050DAF81000C8B301283AD0042868
:1038E0003AD0022838D0032836D0072834D0012017
:1038F000D9F80030B02505EBCB11B42284245D58F3
:1039000002EBCB1205F0E0255D50DAE9003504EB5F
:10391000CB14EB1ABAF8285043434543D9F80000BA
:10392000DB1C43EA05434350D9F8000081586FF38C
:103930000A018150D9F80000DAF82C108150D9F82A
:103940000000015941F001010151BDE8FE8FFFE780
:103950000420CDE70320CBE70220C9E70D48002172
:103960000B4A10B5C0E900218160C1608162C1626B
:1039700001634163FDF7BAFD08B172B6FEE7054881
:103980000121FDF763FD002801D072B6FEE710BDEE
:1039900000B00240B400002070B588B01C21684619
:1039A000FCF78BFC1148002204250F4E8023402495
:1039B000C0E90062C0E90225C0E9063202621021B6
:1039C00042628262C0E90414009101910291039164
:1039D0000491059106916946FFF7B4F9002801D0DA
:1039E00072B6FEE708B070BD400100A05C02002086
:1039F0002DE9F04F87B014216846FCF75EFCFE48C5
:103A0000016841F010010160016801F010010591A9
:103A1000016841F040010160016801F04001059139
:103A2000016841F002010160016801F002010591A5
:103A3000016841F008010160016801F00801059189
:103A4000016841F004010160016801F00401059181
:103A5000016841F001010160016801F00101059177
:103A6000016841F400710160016801F40071059181
:103A7000016841F480710160016801F48071059171
:103A8000016841F480610160016801F48061059181
:103A9000016841F020010160016801F020010591F9
:103AA000016841F08001016000680122202100F0DE
:103AB00080000590D148FDF7F7FFD148002241F280
:103AC0000C01FDF7F1FFCF4800220821FDF7ECFFC4
:103AD000CD4800224FF40051FDF7E6FFCB4800220D
:103AE000C821FDF7E1FF00244FF0080AC8486946E5
:103AF0000294CDE900A4FDF7EBFE09204FF0040984
:103B00000326CDF8009002256946CDE90360C04840
:103B1000CDE90154FDF7DCFE4FF4D0400294CDE92D
:103B200000050B206946CDE90360B848FDF7D0FEDB
:103B300001276946300200901220CDE90107B548FF
:103B4000CDE90349FDF7C4FE02AA43F62340CDE9BF
:103B500000054FF00A08AF4882E850016946FDF7BA
:103B6000B7FE10200090CDE90154AA486946CDE97E
:103B70000345FDF7ADFE80200090CDE901549F483C
:103B80006946CDE9034AFDF7A3FE4FF4F8500294CD
:103B9000CDE900050C206946CDE903609E48FDF79C
:103BA00097FEA8030090CDE901549C486946CDE9F1
:103BB0000347FDF78DFE60204FF00D0B0090694626
:103BC000CDE901549248CDE9034BFDF781FE402039
:103BD000694602AACDE900058E4882E85001FDF74A
:103BE00077FEE8026946CDE900048D480294FDF7AE
:103BF0006FFE402000908B486946CDE901047F4864
:103C0000FDF766FE4FF4E050694602AACDE90005D3
:103C1000824882E85001FDF75BFEF0200090CDE97C
:103C2000015477486946CDE90348FDF751FE680223
:103C30000090CDE9015475486946CDE90348FDF788
:103C400047FE20200090CDE901746C48694603943A
:103C5000FDF73EFECDF800A06946CDE90154674866
:103C6000CDE9034BFDF734FE41F20C000090CDE9A5
:103C70000174634869460394FDF72AFE28036946E8
:103C8000CDE9000464480294FDF722FECDF800A0BF
:103C90006946CDE901745B480394FDF719FE2802DB
:103CA0000090CDE9015459486946CDE9034BFDF731
:103CB0000FFE10206946CDE9000450480294FDF73C
:103CC00007FE0C20CDF800906946CDE903604B4813
:103CD000CDE90154FDF7FCFD48F204006946CDE949
:103CE000000449480294FDF7F3FD05200095CDE955
:103CF00001546946CDE903404148FDF7E9FD280339
:103D00000090CDE90174404869460394FDF7E0FD59
:103D10004FF4BC400090CDE901543B486946CDE9E1
:103D2000034BFDF7D5FD00976946CDE901543448B2
:103D3000CDE90345FDF7CCFDE8010090CDE9015444
:103D400036486946CDE90347FDF7C2FD28030090D8
:103D500034486946CDE901042948FDF7B9FDC02082
:103D6000694602AACDE900052B4882E85004FDF718
:103D7000AFFD1020694602AACDE90005224882E87D
:103D80005001FDF7A5FDC8200090CDE901741F4842
:103D900069460394FDF79CFD4FF4F8606946CDE950
:103DA000000621480294FDF793FD0520694602AA0A
:103DB000CDE90005184882E85001FDF789FD322061
:103DC0000294CDE900050B206946CDE90360124855
:103DD000FDF77EFD0920CDF800906946CDE903602E
:103DE0000C48CDE90154FDF773FD4FF46050029487
:103DF000CDE90005092019E030380240000C0240EE
:103E00000020024000280240001C0240001802402E
:103E1000001002400004024000080240000002407E
:103E2000002402400000121000140240CDE903609B
:103E30002A486946FDF74CFD29486946CDE90094BA
:103E40000294FDF745FD86200294CDE900050B2084
:103E50006946CDE903602348FDF73AFD00976946BE
:103E60002048CDE90164FDF733FD50200090CDE9F5
:103E700001541C486946CDE9034BFDF729FDF101CA
:103E8000009112211848CDE90117CDE9036969466F
:103E9000FDF71EFD2821134802AACDE90015694649
:103EA00082E85001FDF714FD092040210091CDE981
:103EB0000154CDE903400C486946FDF709FD052191
:103EC000B0030090CDE90154CDE9034107486946AC
:103ED000FDF7FEFC07B0BDE8F08F0000000C0240CB
:103EE0000018024000000240001C02400004024092
:103EF000F0B59BB034216846FCF7DFF934210DA8FA
:103F0000FCF7DBF92E4800242C4B0525072140F255
:103F10008E26032240F2E51703600E2344604FF41F
:103F2000257C846040F2E71EC4600461143080E8A0
:103F3000EE5080F8204080F8214080F8224014386C
:103F4000FDF7F8FF08B172B6FEE74FF48066019402
:103F50000294002200946946CDE906468DF830406F
:103F60000394049405948DF831401548CDE9085424
:103F70000A940B948DF83240FDF7B0FF08B172B689
:103F8000FEE70D9401220E940DA90F941094119444
:103F90001294CDE91346CDE915548DF864408DF89F
:103FA00065400748179418948DF86640FDF796FF12
:103FB000002801D072B6FEE71BB0F0BD00680140DA
:103FC000F40000200C48002110B50A4C0C224FF4DC
:103FD000E1330460C0E90131C160C0E904128161CC
:103FE000C16101624162FFF780F8002801D072B61A
:103FF000FEE710BD00100140DC010020FEE7FEE7F7
:1040000002484168491C416070470000840000205C
:10401000034A516853685B1A8342FBD37047000020
:104020008400002070B514460646100E0D460BD0D5
:104030003046FCF7E1FCA04206D022462946304635
:10404000BDE87040FCF75CBB70BD70477047FDF782
:1040500011BF000070B5B4B0302121A8FCF72DF9D4
:1040600014212DA8FCF729F984216846FCF725F9CD
:104070002748016841F080510160006800F08050DD
:1040800032902448016841F44041016000680024F6
:1040900029AB00F4404032900225219510200821E0
:1040A000D822CDE9275483E8260001262C95CDE9B6
:1040B000246021A8FEF784FC08B172B6FEE7FEF783
:1040C000E1F808B172B6FEE74FF480522F944FF436
:1040D000A0510F20CDE93012CDE92D0507212DA8E3
:1040E000FEF784FB08B172B6FEE7CDE9075448201D
:1040F0000090C0211194CDE90A64CDE90515684608
:10410000FEF7F6F8002801D072B6FEE734B070BDB5
:10411000403802400070004005484FF000610368DD
:10412000034A43F470030360803A11607047000053
:1041300088ED00E00148FEF70ABF00009C01002066
:10414000F0B5274B4FF0804E264D02689842264E20
:10415000264F274C09D0704507D0A84205D0B04261
:1041600003D0B84201D0A04205D1D1F804C022F05A
:1041700070024CEA020298421BD0704519D0A84246
:1041800017D0B04215D0B84213D0A04211D0194D6B
:10419000A8420ED0184DA8420BD0184DA84208D006
:1041A000174DA84205D0174DA84202D0164DA8427F
:1041B00003D1CD6822F440722A434D6922F0800277
:1041C0002A43026098428A68C2620A68826201D009
:1041D000A04201D10969016301214161F0BD0000E4
:1041E000000001400004004000080040000C0040B6
:1041F00000040140004001400044014000480140EB
:1042000000180040001C004000200040FDF7F4BAF8
:104210000148FFF797B90000900200203EB5012445
:10422000002202AB8DF80820CDE900340A4623466F
:1042300001460348FFF740FA9DF808003EBD000024
:104240009002002007B5012382B004AACDE9002323
:104250000A4601460248FFF744FA05B000BD0000D7
:104260009002002090F82410C90706D00168836AE4
:104270004A6822F400321A434A6090F824108907F1
:1042800006D50168C36A4A6822F480321A434A603C
:1042900090F82410490706D50168036B4A6822F498
:1042A00080221A434A6090F82410090706D5016855
:1042B000436B4A6822F400421A434A6090F8241083
:1042C000C90606D50168836B8A6822F480521A43B6
:1042D0008A6090F82410890606D50168C36B8A6845
:1042E00022F400521A438A6090F82410490611D52E
:1042F0000168036C4A6822F480121A434A60016C18
:10430000B1F5801F06D10168436C4A6822F4C002EF
:104310001A434A6090F82410090606D50168826C99
:10432000486820F4002010434860704738B50025E5
:104330000446C567FDF7BEFB03462068006800071A
:104340000BD56FF07E400090002220464FF4001104
:1043500000F038F908B1032038BD2020606784F8E8
:104360007050A067002038BD2DE9F04104468068F8
:10437000DFF820C2884F2368D4E90452E16928435A
:104380001E6800250A438549104306EA0C060643C9
:104390001E604FF400422068E668436823F44053EF
:1043A000334343602368A669206AD3F808C03043CA
:1043B0002CF4306606439E602068B8420AD1086833
:1043C00010F0030052D001287BD002287AD00328B5
:1043D0006ED186E0724B98420AD1086810F00C004A
:1043E00079D004287BD0082877D00C2860D178E0D9
:1043F0006C4B98420AD1086810F030006BD010283E
:104400006DD0202869D0302852D16AE0664B98429E
:104410000AD1086810F0C0005DD040285FD0802825
:104420005BD0C02844D15CE0604B98420DD1086855
:1044300010F440704FD0B0F5807F50D0B0F5007FC1
:104440004BD0B0F5407F33D14BE0594B98420FD160
:10445000086810F4406009D0B0F5806F3FD0B0F527
:10446000006F3AD0B0F5406F22D13AE0012120E050
:10447000504B98420DD1086810F440502BD0B0F545
:10448000805F2CD0B0F5005F27D0B0F5405F0FD132
:1044900027E0494B98420BD1086810F440401AD0ED
:1044A000B0F5804F1BD0904217D0B0F5404F18D0D8
:1044B0001021E0694FF6EF7690423AD1092961D296
:1044C00002E00CE009E006E0DFE801F00D10255CF9
:1044D000285C5C5C2B000021EBE70221E9E704216A
:1044E000E7E70821E5E7FEF719FA01E0FEF726FA0B
:1044F0006168400000EB5100B0FBF1F080B2A0F128
:104500001001B1423ED84FF6F0732168C0F3420269
:104510001840104326E02949606805E0FEF71EFABE
:10452000E6E760684FF4803101EB5001B1FBF0F039
:10453000E4E7092926D2DFE801F0050817251C2544
:1045400025251F00FEF7EAF901E0FEF7F7F961689B
:1045500000EB5100B0FBF1F080B2A0F11001B142CC
:1045600010D82168C8600EE06068154901EB500161
:1045700005E0FEF7F3F9EAE7606802EB5001B1FBF2
:10458000F0F0E9E701250020206660662846BDE8D6
:10459000F0810000F369FFEF001001409038024005
:1045A0000044004000480040004C004000500040E3
:1045B0000014014000780040007C00400048E80101
:1045C0000024F4002DE9F0479A4617460E460446AB
:1045D000089D4FF000094FF0200839E0681C37D0E3
:1045E000FDF768FAA0EB0A00A84222D80DB32068B4
:1045F000016849072CD5C069C043000528D4236849
:104600004FF40061196221680B6823F4D0730B60CA
:1046100021688B6823F001038B60C4F87480C4F8B0
:104620007880C4F87C8000BF032084F87090BDE8D7
:10463000F08721680B6823F4D0730B6021688B68C6
:1046400023F001038B60C4F87480C4F87880EBE732
:104650002068C06936EA000004D00020B842BDD00E
:104660000020E4E70120F9E7FEE70000014A0249E3
:1046700000F068B869470008A40000200907002876
:104680004FEA116104DB00F1E02080F8001470476C
:1046900000F00F0000F1E02080F8141D704700B515
:1046A0002DED048BB0EE409AF0EE609A83B051ECA1
:1046B000190BFBF7A0FE41EC180B18EE100A18EED0
:1046C000901A8DED008B002818BF0120084320F0C0
:1046D0000040C0F17F6000F1E040C00F14D019EE3F
:1046E000101A19EE900A8DED009B002918BF0121C8
:1046F000084320F00040C0F17F6000F1E040C00FAF
:1047000004BF012000F018F8B0EE480A03B0F0EE44
:10471000680ABDEC048B00BD02E008C8121F08C186
:10472000002AFAD170477047002001E001C1121F32
:10473000002AFBD170470000014908607047000063
:10474000B00000202DE9F04116460F460446002532
:1047500003E03946B047641C6D1C20780028F8D16E
:104760002846BDE8F081000013B5044801224FF649
:10477000FF736946FEF734FD00981CBDDC01002084
:1047800010B5002821D0114B0022001F196803E04A
:10479000814203D80A4649680029F9D152B1136809
:1047A000841A9C4204D1006818441060104602E04C
:1047B000506000E0186039B102680B1A934203D1CF
:1047C0000B681A4402604968416010BDA8000020CF
:1047D00010B5044C2078002803D1FFF719FD012003
:1047E000207010BD5E000020C82010B5FFF70EFD40
:1047F000BDE81040FFF7ECBFF8B5064600208DF885
:10480000000004460546FFF7E3FFA821F0B2FFF7DA
:1048100005FD8DF800009DF80000512800D101250C
:10482000641CE4B2032C01D2002DEED09DF80000F0
:10483000F8BD70477047000038B500248DF800407F
:104840000221C0B2FFF7EAFC8DF800009DF80000DD
:1048500000F00F008DF800009DF80000052801D938
:104860008DF800409DF800100248417084709DF85A
:10487000000038BD5E0000200022A421C0B2FFF776
:10488000E1BC0122A421C0B2FFF7DCBC38B50C4664
:1048900000218DF800100121C0B2FFF7BFFC8DF898
:1048A00000009DF80000206038BD00002DE9F843AD
:1048B00006461F4600209046DDF820900A468DF8F7
:1048C000000001462B4800252C46407890424FD9E5
:1048D0000A2A2DD2DFE802F005090D1115191D2154
:1048E000252903210725082422E009210D250E246E
:1048F0001EE00F21132514241AE0152119251A246E
:1049000016E01B211F25202412E021212525262425
:104910000EE027212B252C240AE02D2131253224DD
:1049200006E033213725382402E039213D253E2495
:10493000F0B2FFF773FC8DF800009DF800008109CC
:10494000C9F800102946F0B2FFF768FC8DF80000A6
:104950009DF80010F0B2C8F800102146FFF75EFC89
:104960008DF800009DF80000042101EA1010386065
:10497000BDE8F8835E0000202DE9F84F8A4607461F
:104980004448002193468DF800100E460D460C4613
:10499000827843789A427AD20A2A814637D2DFE86F
:1049A00002F0050A0F14191E23282D3204210326B4
:1049B000062505242BE00A2109260C250B2426E0D8
:1049C00010210F261225112421E016211526182565
:1049D00017241CE01C211B261E251D2417E0222164
:1049E00021262425232412E0282127262A252924CC
:1049F0000DE02E212D2630252F2408E034213326EA
:104A00003625352403E03A2139263C253B24F8B2EB
:104A1000FFF704FC8DF800009DF80010F8B2DFF8F5
:104A20007480A8F10208A8F800103146FFF7F6FBE1
:104A30008DF800009DF80010B8F8000001F00F019B
:104A400040EA0120A8F800002946AAF80000F8B2C0
:104A5000FFF7E4FB8DF800009DF80010F8B2A8F80D
:104A600000102146FFF7DAFB8DF800009DF80020CA
:104A7000B8F8001002F00F0241EA0221A8F8001075
:104A8000ABF8001099F80210491C89F80210BDE833
:104A9000F88F00005E00002000207047FFF7ECBE9A
:104AA0001FB5BFF34F8FBFF36F8F6A4800240460B8
:104AB000BFF34F8FBFF36F8F6749086840F4003032
:104AC0000860BFF34F8FBFF36F8F6348703004608F
:104AD000BFF34F8F001F43F6FF7C00685D4D10351C
:104AE000C0F34E32C0F3C9030CEA4216184600BFA9
:104AF00046EA80772F60401EFAD2521EF4D2BFF3EE
:104B00004F8F086840F480300860BFF34F8FBFF3C9
:104B10006F8FFDF7B7F9FFF79DFAFEF769FFFEF714
:104B20001DFFFEF739FFFFF7E3F94D48092145F274
:104B3000FB32009401940294C0E90241474B846126
:104B4000C0E90032FEF7B2F908B172B6FEE7444898
:104B5000694600940294FEF757F908B172B6FEE771
:104B6000FFF730FAFDF716FB01258DF80F401520F1
:104B70008DF8080003218DF80B108DF80E404FF0D2
:104B800040468DF8005068468DF80D408DF80A506B
:104B900001968DF801408DF809408DF80C50FDF715
:104BA000CBFA0420FDF704FBFBF7ACFFFBF7FAFDA3
:104BB00001203146FBF748FE0120FBF775FFFBF7AC
:104BC00021FD284C2046FBF7D7FC2046FBF772FF5F
:104BD0002548FBF78BFFFBF7D5FD84B2FBF7C2FD41
:104BE00080B22146FCF7AAF918B120A0FFF73EFDDC
:104BF000FBE71B48FEF794F900F056FC00F059FC67
:104C0000214A0B23111F101DFCF798FA1F4A0D2390
:104C1000111F101DFCF792FA00F08EFF1C4C206053
:104C200000F08AFF1B4E306021680D7205721A4831
:104C300000F09CFB206800F053FA306800F050FA56
:104C4000206800F0E8F8306800F0E5F80A20FFF787
:104C5000DFF9ECE750EF00E014ED00E00014004055
:104C60009C0100202A2AA5FF00A5FFFF546F756351
:104C7000682073637265656E20696E697469616C22
:104C80002066616C6C2E000038060020440600206F
:104C9000980000209C000020754E0008F0B50B30F5
:104CA000154D20F007010024144A0FE003688B42E1
:104CB0000BD38B4205D95E1A43184768C3E90067D6
:104CC00000E04368136002C004E0021D1068002881
:104CD000ECD12046002802D1286808B10020F0BDA0
:104CE000064A07481060074A121A22F00702C0E974
:104CF000002401202860D7E7AC000020A800002095
:104D000054060020502600200168002901DC032001
:104D10007047C0680844B0F5EF7F01DD022070479E
:104D20000420704741681E2901DC0020704780681C
:104D30000844B0F5877F01DD0120704704207047EB
:104D4000002807D04168002002E04968401CC0B23A
:104D50000029FAD170472DE9F84F80469B46002084
:104D600092460F468146C8F80000054606460446AE
:104D700008602146684600F07EFB48BB0098017F32
:104D800031B30168514528DCC2688B18534524DDD6
:104D900042685A4521DC836802EB030CDC451CDDCC
:104DA000AAEB0103ABEB020299B292B200F01BF83E
:104DB000000E12D00099761C4A46486A484508D32E
:104DC000D8F800101546396081460099C8F80010DF
:104DD00003E0A84201D305463960641C082CC8D3FF
:104DE0003046BDE8F88F18B504460B46009282683D
:104DF000D4E9031000F009F861690A0E04D000F04C
:104E00007F4221F07F40104318BD009A01FB023120
:104E100050F821007047F8B50024054621460CE003
:104E2000684600F02CFB00980168497F09B900F042
:104E3000E3FB641C2846E1B20C4600F05DFE010075
:104E4000EED100242846214600F056FE00260146F9
:104E50000CE0684600F013FB0098641CE1B20C46BD
:104E600080F82460284600F047FE01460029F0D172
:104E7000F8BD00002DE9F047724F994614460E46E2
:104E800038462DED048B82B0FBF730FE052103235D
:104E900008466DA2FBF7D0FBDFF8B0A1554650469F
:104EA000FBF724FE032305213C2067A2FBF7C4FB8C
:104EB0003846FBF71BFE022305213C2064A2FBF7CA
:104EC000BBFB2846FBF712FE05210223084660A221
:104ED000FBF7B2FB3846FBF709FE5E4D002E4FF0A4
:104EE00000067CD0E8784FF00108002878D1A9F1BD
:104EF0000500192874D8601F9FED578ADFED578A87
:104F00009FED579ADFF85C91372831D868460096B4
:104F100000F040FD60BB00980168686800F0AAFDE1
:104F200000985149006800F04BFE00980521036885
:104F30005F6150F8183BC3F8248080EC038A41730A
:104F4000D9F80000FBF798F9FBF78CF901460098B7
:104F50000068C268C2F5F072B1FBF2F302FB1311F4
:104F6000882200F0C5FE00980121006800F082FF51
:104F7000A4F13C0037283CD86846009600F00AFDB2
:104F800078BB00980168A86800F074FD0098364965
:104F90000C31006800F014FE009807219FED330AE1
:104FA0000368C3F814A00268566200F1180280ED8D
:104FB000050A82EC038A80F82510D9F80000FBF777
:104FC0005BF9FBF74FF9014600980068C268C2F52B
:104FD000F072B1FBF2F302FB1311882202E02FE022
:104FE00027E006E000F084FE00980121006800F050
:104FF00041FFA4F5B77036280BD26868002100F095
:105000007BFD0146684600F03AFA10B9684600F0A8
:10501000D9F9A4F2A514362C0BD2A868002100F00F
:105020006BFD0146684600F02AFA10B9684600F0A8
:10503000C9F985F8038002B0BDEC048BBDE8F087A8
:10504000EE70F8E700A5FFFF4E657700D3D3D3FFDE
:1050500044656C0094000020CDCC4C3DCDCC4C3F41
:105060003333333F8800002034060020CDCCCC3DC4
:105070002DE9F0434FF4F0784FF0000CDDE909968C
:10508000DDE90754AF19BEB2454507D24745058053
:1050900001DA168009E0A2F8008006E0002D1CDA93
:1050A000002F1ADD1680A0F800C004EB09024FF4AF
:1050B000887590B2AC4206D2AA420C8001DA188000
:1050C00008E01D8006E0002C07DA002A05DD1880C4
:1050D000A1F800C00020BDE8F0830120FBE700003C
:1050E0002DE9F04FA04D824697B02E78A8788642E1
:1050F00031D000240BE000BF50F82400FFF740FB44
:10510000686950F82400FFF73BFB641CE4B2A87800
:1051100084422869F0D3FFF733FB6869FFF730FB5F
:1051200004213046FBF7D4F8042128613046FBF710
:10513000CFF86861E868FFF723FB04213046FBF7EE
:10514000C7F8E860AE70A868FFF71AFB0121304687
:10515000FBF7BEF8A86005F10C000024A3460DC8BB
:1051600007E000BF50F82410514504D0E1B3641C9F
:10517000E4B2B442F6D35046FFF7E2FD0646A86813
:10518000A946015DB1421DD0D9F810004D4650F836
:10519000240008B1FFF7F4FA686950F8240008B158
:1051A000FFF7EEFA02213046FBF792F8296941F841
:1051B000240002213046FBF78BF8696941F824008E
:1051C000A868065502213046FBF782F802210290BA
:1051D0003046FBF77DF8039006A8FBF7C9FD9DF864
:1051E0001800E8B300273FE0FFE740F824A042F8AA
:1051F00024B043F824B0BEE706A800EB470041887E
:10520000149180891390002027E0002517E029469B
:10521000504600F071FC0590DDE9132100F0DAFC46
:1052200058B90598407F40B10299149821F81500AB
:105230000398139920F8151014E06D1CEDB2B542D7
:10524000E5D34146504600F057FCDDE9132100F05C
:10525000C1FC80B108F10100C0B2B042804600E05C
:1052600006E0D2D37F1CFFB29DF81800B842C3D825
:105270000025294669E00299149821F81800039A3C
:10528000139922F81810EDE730F81500F0B30398E1
:1052900030F81500D0B3707FC8B3D9E9040151F8D4
:1052A000242050F82410039832F8152031F81510F6
:1052B00030F8153002989A1A30F81500411A304625
:1052C00000F092F912A8314600F0D9F8D9F8100090
:1052D00050F8240030F81510029830F81500411AE3
:1052E000129800EE101AB8EEC00A80ED010AD9F843
:1052F000141051F8241031F81520039931F81510C5
:10530000891A00EE101AB8EEC00A01E018E014E0A5
:1053100080ED020AD9F81020029952F8242031F8C1
:10532000151022F81510D9F81410039851F824100C
:1053300030F8150021F8150004E001207077E9E746
:1053400086F81DB06D1CE9B20D46504600F0D4FB46
:105350000600029898D1FFF713FA0398FFF710FAA6
:1053600017B0BDE8F08F00006C00002070B58CB065
:1053700005466846FBF7FCFC9DF8000080B1002460
:105380006E4607E006EB4400428883892046A84722
:10539000641CE4B29DF80010A142F3D80CB070BDBB
:1053A00000231A4619461846A847F7E710B50446E1
:1053B000006800F0E1FB00222046BDE81040022119
:1053C00000F0ECBA0022022100F018BC2DE9FF4FDA
:1053D00086B0174613AA1E46DDE9198A92E8230013
:1053E00016AA92E8100ADDE91B23CDE9028ACDE96D
:1053F0000423CDE9009B23462A4600F078F80128D3
:1054000036D01B98454505EB09014FF0000240449A
:1054100008DD814206990A6001D3401B0CE0C7F801
:1054200000900AE081420698A8EB0503036001D3CF
:105430001B9801E0A9EB030038601C98544504EB6D
:105440000B01504408DD814207990A6001D3001B1B
:105450000CE0C6F800B00AE081420798AAEB04020B
:10546000026001D31C9801E0ABEB02003060002029
:105470000AB0BDE8F08F0A46032100F08FBA70B57C
:1054800000240D46064622460321304600F0B6FBB6
:1054900028B930680068A84201D1002070BD641CA2
:1054A000082CF0D3012070BD00220121104600F02D
:1054B00075BA00220121104600F0A0BB30B586B0BD
:1054C00098B191B191E83C000DF1080C05948CE87D
:1054D0002C00D0E90232CDE90023D0E9002309698C
:1054E000006900F023F806B030BD0120FBE7F0B5FD
:1054F000DDE90710DDE90954DDE90576914202DBBB
:1055000017448F4204DC91420CDC2944914209DDAE
:10551000984202DB9919814206DC984202DC204461
:10552000984201DC0120F0BD0020F0BD2DE9F04FD4
:105530008EB01D4619AF81468B4614461C9A97E8DB
:105540004900DDE917A106AF09920CAA87E84900D6
:10555000CDE904A1CDE90245CDE9009B0DAB0BA936
:105560000AA8FFF733FF18B101200EB0BDE8F08F95
:105570000D9F002131E00C9A00202BE0DDF82880FF
:1055800008EB000C1CEB040F23D40B9B009303EBE4
:10559000010E1EEB050F1CD40AFB0EC3DFF844E01E
:1055A00059F82330734514D0261806EB080C009EDA
:1055B0006B181E44199BACEB0303DDE91AC8A6EB7C
:1055C0000C0C08FB0C335BF82330734501D0022030
:1055D000CBE7401C9042D1D3491CB942CBD3032026
:1055E000C3E700002A2AA5FF30B4D0E900341944EB
:1055F000224430BC00F07CBBF0B504462DED088B96
:1056000081B090F8240000287ED100F085FA06468B
:1056100004E1307AC00727D02168304600F082FAD2
:105620000028F8D00027394615E02068A8420FD09E
:1056300029466846FFF723FF50B9009890F82500E7
:10564000C00705D020682946FFF738FF02280CD094
:105650007F1CF9B20F46304600F04EFA0500E4D147
:1056600094F8240000284FD1D7E00098B7EE008AC4
:10567000D4ED083AD0ED082A90ED012AD4ED011AB4
:10568000D0ED020A33EE884A32EE883A206894ED73
:10569000021ABDEEE15AFDEEC26A78EE633A63EE9D
:1056A000024AD0E900CED5E90012FDEEC15ABDEEA6
:1056B000E07A23EE203A15EE100A16EE907A78EE94
:1056C000622A24EE216A24EE014A41EEA34AC91B54
:1056D00015EE903A17EE106AACEB0000401A01EE9E
:1056E000233A01EE100A921BB6EE000A02EE226A7D
:1056F00000EEA24AAEEB0303991A00EE901AB8EE40
:10570000C19A64EE809A00E08BE023EE00AA66EE78
:1057100000AA24EE00BAF8EEE08A29EE090A08EEA3
:10572000A80A10EE100AFAF7E1FD41EC100BFEF7A3
:10573000B6FF51EC100BFAF7ECFD00EE100AE8682A
:105740002A68C9EE000A410800EBD07301EE901AF6
:1057500002EB6300F8EE611A71EE881A88EE801A87
:1057600000EE100AD5E90120B8EEC00A410800EBAE
:10577000D07301EEA00A02EB630001EE900A2068EC
:1057800002EE101AF8EEE11AC168B8EE422A036878
:105790004A0802EE902A32EE082A01EBD175F8EEA3
:1057A000622A03EB650142EE011A02EE101AD0E9FB
:1057B000013172EE882AB8EEC22A4A0801EBD1758F
:1057C00002EEE02A02EE902A03EB650100EE901A49
:1057D000F8EE622AF8EEE00A30EE420A72EE882A0B
:1057E00042EEC10A31EEE01AFDEEC00ABDEEC10A7A
:1057F00010EE901A10EE102AFFF7F6FEC4ED019A93
:1058000084ED02AA00980121C0ED01AA80ED02BA40
:1058100080F8241084F8241003E0F668002E7FF44A
:10582000F8AE2068FFF770FA04281BD094ED010A47
:10583000D4ED070A94F8250020EE200A800784EDB5
:10584000010A0FD494ED020AB5EEC00AF1EE10FA87
:10585000D4ED060A02DD30EE600A01E030EE200AE7
:1058600084ED020A2068FFF75DFA012804D098B998
:1058700094F82500800713D494ED010AB5EEC00A10
:10588000F1EE10FAD4ED060A02DD30EE600A01E016
:1058900030EE200A84ED010A94F82500800702D535
:1058A00094ED050A01E09FED380A84ED040A94EDB9
:1058B000011AD4ED031A94ED020AD4ED040A71EE34
:1058C000211A94F8253030EE201AC4ED011AFDEEAD
:1058D000E10AD807BDEEC10A10EE901A84ED021A53
:1058E00010EE102A48D0206810EE906AC76805684C
:1058F0002F443E44B6F5F07F0BD3590703D5F1EEA4
:10590000610AC4ED010AC56801682944C1F5F07156
:105910000BE010EE906AF54207D5590703D5F1EE7A
:10592000610AC4ED010A01684942D0E9015710EE4D
:10593000106A2F443E44B6F5887F0DD35A0705D52B
:1059400094ED070A21EE400A84ED020AD0E9012015
:105950001044C0F588720FE010EE106A35441E2D19
:105960000ADA5A0705D594ED070A21EE400A84EDBC
:10597000020A4068C0F11E022068FFF735FE01B040
:10598000BDEC088BF0BD00000000000000221146B5
:1059900000F004B80022114600F030B92DE9F047BC
:1059A000324E0529324C05464FF000094FF00108F0
:1059B00059D2DFE801F00E03294045000025474693
:1059C00054F82500FEF7DCFE77556D1C082DF7D343
:1059D00042E00027F05D90B1286808B1FEF7D0FEE4
:1059E00028210120FAF774FC30B1286006F80790EE
:1059F000286844F827002FE00520BDE8F087072F2E
:105A00002FD07F1C082FE5D32868002754F82710D3
:105A100081420CD1002100F02DFA2868FEF7B0FE7B
:105A2000C5F8009044F8279006F8078014E07F1C22
:105A3000082FEBD315E0B05C98B954F822000AE0C7
:105A40000020D1B2325C4AB954F82020126A8A424E
:105A500004D154F8200028600020CEE7401C08281C
:105A6000F0D30120C9E70420C7E70000610000204F
:105A7000F405002070B506000D4619D074683CB9D5
:105A800008210120FAF724FC706088B105600DE060
:105A90002068A8420CD026466468002CF8D1082162
:105AA0000120FAF715FC18B105607060002070BD88
:105AB000012070BD0F49F0B50A78C2B1561E4D786D
:105AC0004B6800200EE0002408E01F78874201D1D7
:105AD000DB6805E0B4420CD0641CE4B29442F4D319
